:100000000C9434000C9449000C9449000C94490061
:100010000C9449000C9449000C9449000C9449003C
:100020000C9449000C9449000C9449000C9449002C
:100030000C9449000C9449000C9449000C9449001C
:100040000C9449000C9449000C9449000C9449000C
:100050000C9449000C9449000C9449000C944900FC
:100060000C9449000C94490011241FBECFEFD8E036
:10007000DEBFCDBF11E0A0E0B1E0E0E5FAE002C0F4
:1000800005900D92A235B107D9F70E9401010C9499
:1000900026050C9400009091C00095FFFCCF809342
:1000A000C6000895CF93DF93EC018991811103C0BD
:1000B000DF91CF9108950E944B00F7CF0E9452002C
:1000C0008AE00C944B00382F90E080E029B1247036
:1000D000231308950196803E2EE29207B9F790E02F
:1000E00080E00895CF93DF9300D000D01F92CDB76A
:1000F000DEB74AE0BE016F5F7F4F90E00E94E904E7
:10010000CE0101960E9452000F900F900F900F9019
:100110000F90DF91CF910895883058F49AB121E083
:1001200030E001C0220F8A95EAF7892F822B8AB925
:1001300008958E3070F424B18850990B41E050E05E
:10014000BA0102C0660F771F8A95E2F7CB01822BB6
:1001500084B90895863091F028F4833001F1853018
:1001600089F008958A3089F08B3099F08930B1F4A4
:10017000809180008F7780938000089584B58F7779
:1001800084BD089584B58F7DFBCF809180008F7DE5
:10019000F2CF8091B0008F778093B0000895809166
:1001A000B0008F7DF9CFCF93DF93C82FD62F0E9459
:1001B0008C008C2F0E94AA00C83088F481E090E067
:1001C00001C0880FCA95EAF79BB1DD2329F0892B7E
:1001D0008BB9DF91CF91089580958923F9CFCE30E7
:1001E000C0F7C85081E090E001C0880FCA95EAF7D7
:1001F00095B1DD2319F0892B85B9EBCF8095892343
:10020000FBCFCF93DF93CDB7DEB7E0970FB6F8946F
:10021000DEBF0FBECDBF82E00E948C0083E00E9453
:100220008C0084E00E948C0085E00E948C0086E0B7
:100230000E948C001092C50080E18093C40092E07F
:100240009093C00088E18093C10086E08093C20053
:1002500083E084BD95BD91E0909380009AE09093F7
:1002600081008093B00084E08093B10080E48093AB
:100270007C0087E880937A0080E091E00E945E0035
:1002800080E06E0129E2C20ED11C94E7292E312CA8
:10029000AA24A394B12C35E0432E9091C00097FF7F
:1002A000FCCF9091C6009D30C1F3282F30E09A30EA
:1002B00009F0F1C241E050E04C0F5D1F240F351FE3
:1002C000F90110829A018901F90180812F5F3F4F66
:1002D0008032C9F38930B9F301900020E9F73197F2
:1002E000E01BF10B8E2FE00FF12FF11D8823A9F2F7
:1002F0009291903271F0993061F060E471E0C80140
:100300000E94E004892B59F486E091E00E945E008F
:10031000ACC08150D801A80FB11D1C92E7CF63E19A
:1003200071E0C8010E94E004892B09F060C0F60169
:10033000242D11922A95E9F7529A5A984FEF59EFC6
:1003400060E0415050406040E1F700C000005A9A20
:1003500085ED8A95F1F7000052985A9A95E39A959F
:10036000F1F7000080E00E946300892B09F4A0C22D
:1003700084E00E946300892B09F49AC2F12C80E08A
:100380000E9463008C0184E00E9463009C010115BF
:10039000110509F48DC2892B09F48AC2EF2DE69567
:1003A000E695E695EC0DFD2DF11D9081990F021754
:1003B0001307D8F09083F394A8E2FA12E0CF19A5BE
:1003C0000BA58AA5810F800F9CA5890F9DA5891378
:1003D0006FC285E491E00E945200802F0E9472005B
:1003E0008CE20E944B00812F74C09160E3CFF80132
:1003F000E0806AE370E0C8010E94D5044C01F1E49A
:10040000EF1235C0892B09F084C0C80101960E9403
:10041000B7048C0187E191E00830110508F076CF30
:10042000802F806480937C0080917A008064809328
:100430007A0080917A0086FDFCCFE0907800F09001
:10044000790081E40E944B00802F0E9472008AE3B1
:100450000E944B004AE0B601C7010E94E904C601B0
:100460000E9452008AE00E944B0080E016CF22E5F5
:10047000E21249C0892B09F04CC0C80101960E94C4
:10048000B7048C018E30910518F08EE191E03ECFDB
:10049000883010F52AB1C501002E01C0880F0A94DA
:1004A000EAF7809582238AB989B190E0002E02C0D4
:1004B000959587950A94E2F7482F4170F42E82E5CE
:1004C0000E944B00802F0E9472008AE30E944B0022
:1004D0008F2D0E947200C6CF34B128EF280FC501BE
:1004E000022E01C0880F0A94EAF78095832384B90D
:1004F00083B190E002C0959587952A95E2F7582F31
:100500005170F52EDCCF86E291E08114910409F45C
:10051000FDCEC80101960E94B704F82E592E6FEF48
:10052000861A960AC4010E94B7048C016F2C752CA0
:100530008EE06816710408F0A8CF9CE4E91208C0A8
:1005400061E0012B09F460E08F2D0E94D3003EC0D2
:10055000A0E5EA125DC00F3F110519F014F00FEF8E
:1005600010E017FF02C010E000E0E02E8F2D0E9487
:100570008C00002341F3EFEF61E00E1729F3F6E062
:10058000FF1601F1FF1558F023E0F216C9F145E01E
:10059000F416F9F06E2D661F6627661FD5CF5AE058
:1005A000F516E1F06BE0F61619F189E0F812F2CFDA
:1005B0008091800080688093800010938900009370
:1005C000880004C084B5806884BD07BD81E391E0E4
:1005D0009DCE84B5806284BD08BDF8CF8091800037
:1005E00080628093800010938B0000938A00EECF8E
:1005F0008091B00080688093B0000093B300E6CF94
:100600008091B00080628093B0000093B400DECF90
:1006100094E5E91283C06CE270E0C4010E94D50445
:10062000009709F448C101960E94B7044C011016C6
:10063000110664F6181619064CF68F2D0E948C00D0
:100640008F2D0E94AA0017FF02C010E000E060E2B8
:1006500071EA87E090E09801012E000C440B550BE5
:100660000E947704E22E532E9401A1ED8A16A7E092
:100670009A0614F020ED37E0D8010E94990428EE84
:1006800033E040E050E00E947704E8E06E1A710821
:10069000D50101C0AA0F6A94EAF76A2FC5010F2C91
:1006A00001C0880F0A94EAF7E82FFA2FF095782F07
:1006B0007095612C712C43012615370548055905A5
:1006C00009F484CF87E08F1530F08BB18E2B8BB976
:1006D0008E2D952D08C085B1862B85B9F9CFA5E063
:1006E000AA95F1F700000197D0F787E08F1530F059
:1006F0008BB187238BB98E2D952D08C085B18F23A3
:1007000085B9F9CFA5E0AA95F1F700000197D0F7D8
:100710008FEF681A780A880A980ACECF95E5E91211
:10072000B7C00E30110508F0B0CEE02EA7E0A0173C
:1007300008F475C02AB1C501002E01C0880F0A94C3
:10074000EAF7809582238AB960E08F2D0E94D3005A
:10075000FAE0FA95F1F700C061E08F2D0E94D30016
:1007600025E32A95F1F7000060E08F2D0E94D30069
:1007700050918000409181001092800062E060936F
:100780008100109285001092840098012850310950
:10079000E7E0EE1508F461C089B190E0002E02C0D8
:1007A000959587950A94E2F7817009F446C01092F6
:1007B00085001092840098012850310967E06E1579
:1007C00008F45DC089B190E0002E02C09595879530
:1007D0000A94E2F7817009F049C0809184009091F9
:1007E00085005093800040938100B1010E94630412
:1007F000CB01B0E0A0E0AB01BD014150510961095E
:100800007109403951406105710518F54AE0B6019A
:100810000E94E90484E391E00E94520020CE24B1BA
:10082000C8010897F50102C0EE0FFF1F8A95E2F795
:10083000CF018095822384B987CF809184009091E5
:10084000850081369A4E08F4A3CF509380004093E0
:1008500081008FEF9FEFDC01D9CF83B190E0022EB2
:1008600002C0959587950A94E2F79ECF8091840007
:100870009091850081369A4E08F4A0CFE6CF83B1DF
:1008800090E0022E02C0959587950A94E2F7A2CFD8
:1008900088E391E03BCD873208F0FFCC8F5F41E0E9
:1008A00050E04C0F5D1F240F351FF9019083F5CCEC
:1008B0008AE491E02BCD88EC882E912C101611063D
:1008C0000CF4BBCE83CEAA1BBB1B51E107C0AA1FF1
:1008D000BB1FA617B70710F0A61BB70B881F991FE1
:1008E0005A95A9F780959095BC01CD010895A1E294
:1008F0001A2EAA1BBB1BFD010DC0AA1FBB1FEE1F9A
:10090000FF1FA217B307E407F50720F0A21BB30BE4
:10091000E40BF50B661F771F881F991F1A9469F760
:1009200060957095809590959B01AC01BD01CF01BC
:1009300008950E94A104332312F48A1B9B0B0C948C
:10094000B204A29FB001B39FC001A39F700D811D8F
:100950001124911DB29F700D811D1124911D0895C8
:100960000E94A104B7FF0895821B930B0895FC0118
:1009700088279927E89421912032E9F3293010F053
:100980002E30C8F32B3241F02D3239F4689404C074
:100990000E94F404820F911D219120532A30C0F34C
:1009A0001EF4909581959F4F0895FC0181918617C3
:1009B00021F08823D9F7992708953197CF01089519
:1009C000FB01DC018D91019080190110D9F3990B85
:1009D0000895BB274A3031F4992322F4BDE2909563
:1009E00081959F4F0C94FD047AE0979F902D879FEF
:1009F000802D910D11240895BB27FB015527AA27AF
:100A0000880F991FAA1FA41710F0A41B839550519B
:100A1000B9F7A05DAA3308F0A95DA193009779F713
:100A2000B111B1931192CB010C941605DC01FC01BC
:100A3000672F71917723E1F7329704C07C916D9312
:100A400070836291AE17BF07C8F30895F894FFCF83
:100A5000524541445900504C4159484F5553452047
:100A6000763400444854004552523A636800455277
:100A7000523A70696E004552523A666F726D6174F7
:100A8000004F4B0055533A004552523A636D640093
:100A900050494E47004448543A004552523A64681F
:020AA0007400E0
:00000001FF
