:100000000C9434000C9449000C9449000C94490061
:100010000C9449000C9449000C9449000C9449003C
:100020000C9449000C9449000C9449000C9449002C
:100030000C9449000C9449000C9449000C9449001C
:100040000C9449000C9449000C9449000C9449000C
:100050000C9449000C9449000C9449000C944900FC
:100060000C9449000C94490011241FBECFEFD8E036
:10007000DEBFCDBF11E0A0E0B1E0E0E4F4E002C0FB
:1000800005900D92A633B107D9F70E94D1000C94C8
:100090001E020C940000883058F49AB121E030E040
:1000A00001C0220F8A95EAF7892F822B8AB9089519
:1000B0008E3070F424B18850990B41E050E0BA01C1
:1000C00002C0660F771F8A95E2F7CB01822B84B9B5
:1000D0000895CF93DF93C82FD62F0E944B00C630D0
:1000E00011F148F4C330E9F1C53071F1C830F0F0D6
:1000F000CE3038F50BC0CA3051F1CB3061F1C93088
:10010000A9F7809180008F7780938000C85081E0AC
:1001100090E001C0880FCA95EAF7DD2359F195B147
:10012000892B85B90EC084B58F7784BD81E090E0BE
:1001300001C0880FCA95EAF79BB1DD23C1F0892B76
:100140008BB9DF91CF91089584B58F7DEECF8091EB
:1001500080008F7DD9CF8091B0008F778093B000E1
:10016000D5CF8091B0008F7D8093B000DFCF809598
:100170008923E6CF95B180958923D3CFFC01919156
:10018000911108C08091C00085FFFCCF8AE0809368
:10019000C60008958091C00085FFFCCF9093C600F3
:1001A000EECFCF93DF93CDB7DEB7A8970FB6F89415
:1001B000DEBF0FBECDBF82E00E944B0083E00E94F5
:1001C0004B0084E00E944B0085E00E944B0086E0DB
:1001D0000E944B001092C50080E18093C40092E021
:1001E0009093C00088E18093C10086E08093C200B4
:1001F00083E084BD95BD91E0909380009AE0909358
:1002000081008093B00084E08093B10080E091E0B1
:100210000E94BE0080E09091C00097FFFCCF9091BB
:10022000C6009D30C1F3282F30E09A3009F0BFC0DE
:1002300041E050E04C0F5D1F240F351FF901108283
:100240009A017901F90180812F5F3F4F8032C9F314
:100250008930B9F301900020E9F73197EE19FF09D1
:100260008E2FEE0DFF2DF11D8823A9F29291903271
:1002700061F0993051F061E371E0C7010E940D0215
:10028000892B49F486E091E0C3CF8150D701A80FB4
:10029000B11D1C92E9CF6AE370E0C7010E9402021F
:1002A0008C0183E191E00115110509F4B1CFC7017B
:1002B00001960E94E4016C01C80101960E94E401CC
:1002C000FEE0CF16D10418F08EE191E0A1CFF70146
:1002D00020812C3441F461E0892B09F460E08C2DFD
:1002E0000E9469003FC0203509F05EC08C018F3F3D
:1002F000910519F014F00FEF10E017FF02C010E0A5
:1003000000E0E02E8C2D0E944B00002339F3FFEF1C
:1003100061E00F1721F326E0C21601F12C1558F009
:1003200043E0C416C9F155E0C516F9F06E2D661FFD
:100330006627661FD4CF8AE0C816E1F09BE0C91695
:1003400019F1E9E0CE12F2CF8091800080688093AD
:100350008000109389000093880004C084B58068F1
:1003600084BD07BD86E291E053CF84B5806284BD31
:1003700008BDF8CF80918000806280938000109348
:100380008B0000938A00EECF8091B000806880934C
:10039000B0000093B300E6CF8091B00080628093FC
:1003A000B0000093B400DECF89E291E031CF873214
:1003B00008F031CF8F5F41E050E04C0F5D1F240FFC
:1003C000351FF901908327CFFC0188279927E894EE
:1003D00021912032E9F3293010F02E30C8F32B326E
:1003E00041F02D3239F4689404C00E941602820F45
:1003F000911D219120532A30C0F31EF490958195D0
:100400009F4F0895FC018191861721F08823D9F729
:10041000992708953197CF010895FB01DC018D9153
:10042000019080190110D9F3990B08957AE0979FF4
:10043000902D879F802D910D11240895F894FFCF62
:10044000524541445900504C4159484F555345205D
:100450007631004552523A666F726D6174004552B2
:10046000523A70696E004F4B004552523A636D64C8
:060470000050494E470058
:00000001FF
