:100000000C9434000C9449000C9449000C94490061
:100010000C9449000C9449000C9449000C9449003C
:100020000C9449000C9449000C9449000C9449002C
:100030000C9449000C9449000C9449000C9449001C
:100040000C9449000C9449000C9449000C9449000C
:100050000C9449000C9449000C9449000C944900FC
:100060000C9449000C94490011241FBECFEFD8E036
:10007000DEBFCDBF11E0A0E0B1E0ECEDF5E002C0E5
:1000800005900D92A834B107D9F70E94E5000C94B1
:10009000EC020C9400009091C00095FFFCCF80937F
:1000A000C6000895CF93DF93EC018991811103C0BD
:1000B000DF91CF9108950E944B00F7CF0E9452002C
:1000C0008AE00C944B00382F90E080E029B1247036
:1000D000231308950196803E2EE29207B9F790E02F
:1000E00080E00895883058F49AB121E030E001C0F2
:1000F000220F8A95EAF7892F822B8AB908958E30CC
:1001000070F424B18850990B41E050E0BA0102C06C
:10011000660F771F8A95E2F7CB01822B84B9089589
:10012000CF93DF93C82FD62F0E947200C63011F1F3
:1001300048F4C330E9F1C53071F1C830F0F0CE3089
:1001400038F50BC0CA3051F1CB3061F1C930A9F795
:10015000809180008F7780938000C85081E090E08C
:1001600001C0880FCA95EAF7DD2359F195B1892BB3
:1001700085B90EC084B58F7784BD81E090E001C061
:10018000880FCA95EAF79BB1DD23C1F0892B8BB9A3
:10019000DF91CF91089584B58F7DEECF809180005F
:1001A0008F7DD9CF8091B0008F778093B000D5CF6D
:1001B0008091B0008F7D8093B000DFCF8095892340
:1001C000E6CF95B180958923D3CFCF93DF93CDB779
:1001D000DEB7AD970FB6F894DEBF0FBECDBF82E09D
:1001E0000E94720083E00E94720084E00E9472000C
:1001F00085E00E94720086E00E9472001092C500A5
:1002000080E18093C40092E09093C00088E18093E5
:10021000C10086E08093C20083E084BD95BD91E07B
:10022000909380009AE0909381008093B00084E0E6
:100230008093B10080E091E00E945E0080E095E054
:10024000992E6E0129E2C20ED11C9091C00097FF39
:10025000FCCF9091C6009D30C1F3282F30E09A303A
:1002600009F03BC141E050E04C0F5D1F240F351FEA
:10027000F90110829A017901F90180812F5F3F4FC6
:100280008032C9F38930B9F301900020E9F7319742
:10029000EE19FF098E2FEE0DFF2DF11D8823A9F217
:1002A0009291903271F0993061F065E371E0C7018D
:1002B0000E94A602892B59F486E091E00E945E001C
:1002C0007CC08150D701A80FB11D1C92E7CF63E11C
:1002D00071E0C7010E94A602892B09F072C0F601E5
:1002E000292D11922A95E9F7529A5A984FEF59EF12
:1002F00080E0415050408040E1F700C000005A9A31
:1003000095ED9A95F1F7000052985A9AE5E3EA952F
:10031000F1F7000080E00E946300892B09F4EAC035
:1003200084E00E946300892B09F4E4C0F12C80E092
:100330000E9463008C0184E00E9463009C0101150F
:10034000110509F4D7C0892B09F4D4C0EF2DE69527
:10035000E695E695EC0DFD2DF11D9081990F0217A4
:10036000130768F19083F394F8E2FF12E0CF19A528
:100370000BA58AA5810F800F9CA5890F9DA58913C8
:10038000B9C08AE391E00E9452004AE0B601802F92
:1003900090E00E94AF02C6010E9452008CE20E94CF
:1003A0004B004AE0B601812F90E00E94AF02C601E7
:1003B0000E9452008AE00E944B0080E046CF91608C
:1003C000D1CF6AE370E0C7010E949B028C0187E1F4
:1003D00091E00115110509F471CFC70101960E9442
:1003E0007D025C01C80101960E947D022EE0A216EA
:1003F000B10418F082E291E061CFF70120812C3442
:1004000041F461E0892B09F460E08A2D0E9490009C
:100410003FC0203509F05EC08C018F3F910519F077
:1004200014F00FEF10E017FF02C010E000E0E02E24
:100430008A2D0E947200002339F3FFEF61E00F174D
:1004400021F326E0A21601F12A1558F043E0A41684
:10045000C9F155E0A516F9F06E2D661F6627661FD7
:10046000D4CF8AE0A816E1F09BE0A91619F1E9E0E3
:10047000AE12F2CF8091800080688093800010934C
:1004800089000093880004C084B5806884BD07BDDE
:100490008AE291E013CF84B5806284BD08BDF8CFB5
:1004A0008091800080628093800010938B00009385
:1004B0008A00EECF8091B00080688093B0000093F6
:1004C000B300E6CF8091B00080628093B0000093CB
:1004D000B400DECF8DE291E0F1CE873208F0B5CEE8
:1004E0008F5F41E050E04C0F5D1F240F351FF90175
:1004F0009083ABCE8FE391E0E1CEFC018827992772
:10050000E89421912032E9F3293010F02E30C8F31D
:100510002B3241F02D3239F4689404C00E94BA02A3
:10052000820F911D219120532A30C0F31EF4909523
:1005300081959F4F0895FC018191861721F08823B2
:10054000D9F7992708953197CF010895FB01DC0170
:100550008D91019080190110D9F3990B0895BB2753
:100560004A3031F4992322F4BDE2909581959F4F52
:100570000C94C3027AE0979F902D879F802D910D58
:1005800011240895BB27FB015527AA27880F991F1F
:10059000AA1FA41710F0A41B83955051B9F7A05DB2
:1005A000AA3308F0A95DA193009779F7B111B1932F
:1005B0001192CB010C94DC02DC01FC01672F7191DC
:1005C0007723E1F7329704C07C916D937083629139
:0C05D000AE17BF07C8F30895F894FFCFE2
:1005DC00524541445900504C4159484F55534520C0
:1005EC00763200444854004552523A666F726D613F
:1005FC0074004552523A70696E004F4B004552528E
:10060C003A636D640050494E47004448543A0045E3
:08061C0052523A6468740000B8
:00000001FF
