:100000000C9434000C9449000C9449000C94490061
:100010000C9449000C9449000C9449000C9449003C
:100020000C9449000C9449000C9449000C9449002C
:100030000C9449000C9449000C9449000C9449001C
:100040000C9449000C9449000C9449000C9449000C
:100050000C9449000C9449000C9449000C944900FC
:100060000C9449000C94490011241FBECFEFD8E036
:10007000DEBFCDBF11E0A0E0B1E0ECECF8E002C0E3
:1000800005900D92AE34B107D9F70E9401010C948E
:1000900064040C9400009091C00095FFFCCF809305
:1000A000C6000895CF93DF93EC018991811103C0BD
:1000B000DF91CF9108950E944B00F7CF0E9452002C
:1000C0008AE00C944B00382F90E080E029B1247036
:1000D000231308950196803E2EE29207B9F790E02F
:1000E00080E00895CF93DF9300D000D01F92CDB76A
:1000F000DEB74AE0BE016F5F7F4F90E00E942704A9
:10010000CE0101960E9452000F900F900F900F9019
:100110000F90DF91CF910895883058F49AB121E083
:1001200030E001C0220F8A95EAF7892F822B8AB925
:1001300008958E3070F424B18850990B41E050E05E
:10014000BA0102C0660F771F8A95E2F7CB01822BB6
:1001500084B90895863091F028F4833001F1853018
:1001600089F008958A3089F08B3099F08930B1F4A4
:10017000809180008F7780938000089584B58F7779
:1001800084BD089584B58F7DFBCF809180008F7DE5
:10019000F2CF8091B0008F778093B0000895809166
:1001A000B0008F7DF9CFCF93DF93C82FD62F0E9459
:1001B0008C008C2F0E94AA00C83088F481E090E067
:1001C00001C0880FCA95EAF79BB1DD2329F0892B7E
:1001D0008BB9DF91CF91089580958923F9CFCE30E7
:1001E000C0F7C85081E090E001C0880FCA95EAF7D7
:1001F00095B1DD2319F0892B85B9EBCF8095892343
:10020000FBCFCF93DF93CDB7DEB7E3970FB6F8946C
:10021000DEBF0FBECDBF82E00E948C0083E00E9453
:100220008C0084E00E948C0085E00E948C0086E0B7
:100230000E948C001092C50080E18093C40092E07F
:100240009093C00088E18093C10086E08093C20053
:1002500083E084BD95BD91E0909380009AE09093F7
:1002600081008093B00084E08093B10080E48093AB
:100270007C0087E880937A0080E091E00E945E0035
:1002800080E098EE292E93E0392E412C512CEE245B
:10029000E394F12C6E0129E2C20ED11C35E0632EED
:1002A0009091C00097FFFCCF9091C6009D30C1F3A4
:1002B000282F30E09A3009F040C241E050E04C0F66
:1002C0005D1F240F351FD9011C929A018901F90184
:1002D00080812F5F3F4F8032C9F38930B9F301909D
:1002E0000020E9F73197E01BF10B8E2FE00FF12F83
:1002F000F11D8823A9F29291903271F0993061F04A
:100300006CE371E0C8010E941E04892B59F486E059
:1003100091E00E945E00ACC08150D801A80FB11DD1
:100320001C92E7CF63E171E0C8010E941E04892B93
:1003300009F060C0D601E62D1D92EA95E9F7529AC0
:100340005A98FFEF29EF40E0F15020404040E1F79C
:1003500000C000005A9A55ED5A95F1F700005298E6
:100360005A9A85E38A95F1F7000080E00E946300C5
:10037000892B09F4EFC184E00E946300892B09F402
:10038000E9C1B12C80E00E9463008C0184E00E94EE
:1003900063009C010115110509F4DCC1892B09F4E6
:1003A000D9C1EB2DE695E695E695EC0DFD2DF11DF9
:1003B0009081990F02171307D8F09083B39498E2B5
:1003C000B912E0CF19A50BA58AA5810F800F9CA5B6
:1003D000890F9DA58913BEC181E491E00E9452005E
:1003E000802F0E9472008CE20E944B00812F74C00B
:1003F0009160E3CFD8019C906AE370E0C8010E944D
:1004000013045C01B1E49B1235C0892B09F084C050
:10041000C80101960E94F5038C0187E191E0083044
:10042000110508F076CF802F806480937C00809146
:100430007A00806480937A0080917A0086FDFCCFF8
:10044000A0907800B090790081E40E944B00802F4A
:100450000E9472008AE30E944B004AE0B601C50187
:100460000E942704C6010E9452008AE00E944B00AD
:1004700080E016CFE2E59E1249C0892B09F04CC0FE
:10048000C80101960E94F5038C018E30910518F089
:100490008EE191E03ECF883010F52AB1C701002EE1
:1004A00001C0880F0A94EAF7809582238AB989B13E
:1004B00090E0002E02C0959587950A94E2F7F82FF8
:1004C000F170BF2E82E50E944B00802F0E947200C7
:1004D0008AE30E944B008B2D0E947200C6CF34B17C
:1004E00028EF280FC701022E01C0880F0A94EAF7EF
:1004F0008095832384B983B190E002C09595879558
:100500002A95E2F7282F2170B22EDCCF86E291E007
:10051000A114B10409F4FDCEC80101960E94F503AF
:10052000882E792E4FEFA41AB40AC5010E94F50354
:100530008C0188AA79AA88A999A90E9708F0A8CF52
:100540009CE4991208C061E0012B09F460E0882D59
:100550000E94D3003EC0A0E59A125DC00F3F110576
:1005600019F014F00FEF10E017FF02C010E000E0E8
:10057000B02E882D0E948C00002341F3BFEF61E074
:100580000B1729F3E6E08E1601F1E81558F0F3E0B9
:100590008F16C9F125E08216F9F06B2D661F6627CC
:1005A000661FD5CF4AE08416E1F05BE0851619F1AD
:1005B00089E08812F2CF809180008068809380006B
:1005C000109389000093880004C084B5806884BDBE
:1005D00007BD81E391E09DCE84B5806284BD08BDF6
:1005E000F8CF8091800080628093800010938B0010
:1005F00000938A00EECF8091B00080688093B000B5
:100600000093B300E6CF8091B00080628093B00089
:100610000093B400DECF94E599128CC06CE270E0D8
:10062000C5010E941304009709F497C001960E9427
:10063000F5035C011016110664F6181619064CF63F
:10064000882D0E948C00882D0E94AA0017FF02C0EE
:1006500010E000E060E271EA87E090E09801012E8E
:10066000000C440B550B0E94B503922E732E95017E
:10067000A1EDAA16A7E0BA0614F020ED37E0D801E4
:100680000E94D703A20191010E94B50388A999A9EC
:100690000897D70101C0AA0F8A95EAF76A2FC70108
:1006A000082C01C0880F0A94EAF7E82FFA2FF0957A
:1006B000782F709518AA19AA1AAA1BAA88A999A90D
:1006C000AAA9BBA9281739074A075B0709F481CFF4
:1006D000B7E0B81530F08BB18E2B8BB9892D972DE3
:1006E00008C085B1862B85B9F9CFA5E0AA95F1F7A9
:1006F00000000197D0F787E0881530F08BB1872391
:100700008BB9892D972D08C085B18F2385B9F9CF75
:10071000A5E0AA95F1F700000197D0F788A999A95B
:10072000AAA9BBA90196A11DB11D88AB99ABAAAB23
:10073000BBABC4CF84E391E0ECCD873208F0B0CD01
:100740008F5FA1E0B0E0AC0FBD1F2A0F3B1FF90186
:100750009083A6CD86E491E0DCCD88ECA82EB12C68
:10076000101611060CF46CCF34CFA1E21A2EAA1B7E
:10077000BB1BFD010DC0AA1FBB1FEE1FFF1FA21751
:10078000B307E407F50720F0A21BB30BE40BF50B4E
:10079000661F771F881F991F1A9469F760957095D7
:1007A000809590959B01AC01BD01CF0108950E94F9
:1007B000DF03332312F48A1B9B0B0C94F003A29FDC
:1007C000B001B39FC001A39F700D811D1124911D25
:1007D000B29F700D811D1124911D08950E94DF03A9
:1007E000B7FF0895821B930B0895FC018827992772
:1007F000E89421912032E9F3293010F02E30C8F32B
:100800002B3241F02D3239F4689404C00E94320436
:10081000820F911D219120532A30C0F31EF4909530
:1008200081959F4F0895FC018191861721F08823BF
:10083000D9F7992708953197CF010895FB01DC017D
:100840008D91019080190110D9F3990B0895BB2760
:100850004A3031F4992322F4BDE2909581959F4F5F
:100860000C943B047AE0979F902D879F802D910DEB
:1008700011240895BB27FB015527AA27880F991F2C
:10088000AA1FA41710F0A41B83955051B9F7A05DBF
:10089000AA3308F0A95DA193009779F7B111B1933C
:1008A0001192CB010C945404DC01FC01672F71916F
:1008B0007723E1F7329704C07C916D937083629146
:0C08C000AE17BF07C8F30895F894FFCFEF
:1008CC00524541445900504C4159484F55534520CD
:1008DC00763300444854004552523A6368004552FE
:1008EC00523A70696E004552523A666F726D61747D
:1008FC00004F4B004552523A636D640050494E47CD
:0E090C00004448543A004552523A6468740060
:00000001FF
